:030000000205EF07
:0C05EF00787FE4F6D8FD758171020636B5
:08077F00000000000000000072
:10067B000139361E1B0000000000000000000000C6
:10068B00000000000000000000000000000000005F
:10069B0000000002080000020A0000020C00000229
:1006AB000E00000210000002120000023A000002CD
:1006BB003C0000023E00000240000002420000022B
:0B06CB001500010217000002190000DA
:1000260075443075453075463075473075483075BE
:100036004930E4F54BF54CF54DF54EF54FF550F5D9
:1000460051F552F553F554F555F556F557F558F55E
:1000560059F55AF55BF55CF55DF55EF55FF560F50E
:1000660061F562F563F564F565F56678677C00FD14
:100076007BFF7A07797FFE7F081205B053D9BF123E
:10008600077512078712001612075BD2AFD2ACC2F1
:10009600B1C2B2C2B3C2B4C2B530820F1207393090
:1000A60082091207393082037544612082321207B1
:1000B6003920822C120739208226E544B461217545
:1000C6004430E50925E02467F8760008760105093D
:1000D600E50970020508640445087004F508F50989
:1000E600E56864014567701C0556E55670020555BE
:1000F600646E4555700EF567F568AF39120003E476
:10010600F555F556E56A64014569701C0558E558CC
:1001160070020557646E4557700EF569F56AAF397A
:10012600120003E4F557F558E56C6401456B701C45
:10013600055AE55A70020559646E4559700EF56BFD
:10014600F56CAF39120003E4F559F55AE56E640112
:10015600456D701C055CE55C7002055B646E455B75
:10016600700EF56DF56EAF39120003E4F55BF55CC4
:1001760030830F120739308309120739308303752C
:1001860045612083361207392083301207392083D0
:100196002AE545B46125754530050BE50B7002056A
:1001A6000A641E450A7005F50A750B01741B250BBA
:1001B600F8E6B43006754B00754C01C3E54C940166
:1001C600E54B94004022054CE54C7002054B641E3D
:1001D600454B7014F54BF54CF55D755E01D2B1D209
:1001E600A2741B250BF87641C3E55E9401E55D9488
:1001F600004016055EE55E7002055D6414455D709F
:1002060008F55DF55EC2B1C2A230860F120739301D
:10021600860912073930860375466120864E120715
:1002260039208648120739208642E5466461703CCB
:10023600754630050DE50D7002050C641E450C7003
:10024600028018741B250DF8E6FFB44115050DE56F
:100256000D7002050C641E450C70E8F50C750D0159
:1002660080E1EFB43106754D00754E01C3E54E943D
:1002760001E54D94004023054EE54E7002054D64A0
:100286001E454D7015F54DF54ED2B2D2A2741B2502
:100296000DF87641755F00756001C3E5609401E570
:1002A6005F940040160560E5607002055F641445C2
:1002B6005F7008F55FF560C2B2C2A230870F120701
:1002C6003930870912073930870375476120874E11
:1002D600120739208748120739208742E5476461AB
:1002E600703C754730050FE50F7002050E641E451C
:1002F6000E70028018741B250FF8E6FFB441150531
:100306000FE50F7002050E641E450E70E8F50E75BA
:100316000F0180E1EFB43206754F00755001C3E559
:10032600509401E54F940040230550E550700205B6
:100336004F641E454F7015F54FF550D2B3D2A274D7
:100346001B250FF87641756100756201C3E562945D
:1003560001E561940040160562E56270020561647C
:100366001445617008F561F562C2B3C2A230A40FEC
:1003760012073930A40912073930A40375486120E1
:10038600A44E12073920A44812073920A442E54892
:100396006461703C7548300511E511700205106402
:1003A6001E451070028018741B2511F8E6FFB44133
:1003B600150511E51170020510641E451070E8F56B
:1003C6001075110180E1EFB43306755100755201C5
:1003D600C3E5529401E551940040230552E552705D
:1003E600020551641E45517015F551F552D2B4D22D
:1003F600A2741B2511F87641756300756401C3E587
:10040600649401E563940040160564E56470020592
:1004160063641445637008F563F564C2B4C2A23020
:10042600A50F12073930A50912073930A5037549FA
:100436006120A54E12073920A54812073920A5428A
:10044600E5496461703C7549300513E51370020592
:1004560012641E451270028018741B2513F8E6FFFD
:10046600B441150513E51370020512641E4512709A
:10047600E8F51275130180E1EFB434067553007583
:100486005401C3E5549401E553940040230554E513
:100496005470020553641E45537015F553F554D236
:1004A600B5D2A2741B2513F87641756500756601F1
:1004B600C3E5669401E5659400500302009F056656
:1004C600E5667002056564144565600302009FF5E4
:0A04D60065F566C2B5C2A202009FE0
:040739007F0A7E00B5
:10073D00EF1FAA0670011E4A6013E4FCFDC3ED9481
:0D074D007DEC940050EA0DBD00010C80F021
:01075A00227C
:0A07750043A41075E10175E2402273
:0707870043B20375EF0422E9
:10075B00759810758D64538EF4438E01858D8B5374
:0A076B00890F438920D28ED2992213
:030023000206D7FB
:0B06D700C0E0C0D075D000C000C0071C
:1006E200209924C298AF99B2A3E516641E451570ED
:1006F20005F515751601741B2516F8A6070516E5EE
:0907020016700605158002C2996B
:09070B00D007D000D0D0D0E032BC
:10000300C2ACC2AF8F993099FDC299D2ACD2AF22A4
:100714008B6F8A708971AB6FAA70A9711205D6604C
:10072400130571E5717002057014F91205D6FF12F4
:05073400000380E22239
:0D00160075880575E410D2B8D2A8D2AA22D0
:0300130002078E53
:03078E00B2A332E1
:1005FB00020026E493A3F8E493A34003F68001F2F0
:10060B0008DFF48029E493A3F85407240CC8C33300
:10061B00C4540F4420C8834004F456800146F6DFCF
:10062B00E4800B010204081020408090067BE47EDE
:10063B00019360BCA3FF543F30E509541FFEE493C4
:10064B00A360010ECF54C025E060A840B8E493A38B
:10065B00FAE493A3F8E493A3C8C582C8CAC583CAB6
:10066B00F0A3C8C582C8CAC583CADFE9DEE780BE6E
:0106D6000023
:1004E000E709F608DFFA8046E709F208DFFA803EFE
:1004F00088828C83E709F0A3DFFA8032E309F608EB
:10050000DFFA8078E309F208DFFA807088828C8352
:10051000E309F0A3DFFA806489828A83E0A3F60806
:10052000DFFA805889828A83E0A3F208DFFA804CE0
:1005300080D280FA80C680D4806980F280338010B7
:1005400080A680EA809A80A880DA80E280CA803320
:1005500089828A83ECFAE493A3C8C582C8CCC58398
:10056000CCF0A3C8C582C8CCC583CCDFE9DEE78068
:100570000D89828A83E493A3F608DFF9ECFAA9F0E7
:10058000EDFB2289828A83ECFAE0A3C8C582C8CC3D
:10059000C583CCF0A3C8C582C8CCC583CCDFEADE56
:1005A000E880DB89828A83E493A3F208DFF980CCB8
:1005B00088F0EF60010E4E60C388F0ED2402B404B1
:1005C0000050B9F582EB2402B4040050AF23234558
:0605D00082239005307348
:1005D600BB010689828A83E0225002E722BBFE0223
:0905E600E32289828A83E4932256
:00000001FF
